:400000000040002011000000C9030000C903000008B500F0DBF9C04610B5294C1223236000F0BEFD012000F0DBFD182000F0DAFC244A254B1A60254A116802230B43136086
:40004000234A244B1A60244A136808218B431360FA20C00000F070FD204800F063FD204A204B1A60204B214A1A60E0210901204A1160204A1A60802149011F4A11601F4A51
:400080001A60802212061E4B1A6042231D4A13601D4A13601D4A136040221D4B1A6001321C4B1A6008201C4900F0ECFC082000F0D3FC0022194B1A601123236010BDC04608
:4000C000300010400600008004010B4078002E402D3E00007C002E406CF02E40DC05000000DF0100080301400000014042FF00800003014040FF00800403014041FF00808B
:4001000008010B402C010140200101401C0101400801014004010140F90C00000C020B4010B572B60022344B1A60002410E0334863001A195200821891881B195B001A5A1A
:40014000C31858880004104300F0B8F90134E4B2012CECD92949081C0C30203100F084F980225200264B1A80FF3A264B1A70264A264B1A60EE221204254B1A600022254B4F
:400180001A6099231B04244A1360244A13602449244A1160244A1360244A1360244A254B1A60254B197802220A431A70234802783C218A4328390A430270197816220A4381
:4001C0001A701F4A1F4B1A6064221F4B1A601F4A1F4B1A6020221F4B1A60C32212041E4B1A6030221D4B1A601D4A1E4B1A60FFF713FF00F053F910BD6CF02E400013000001
:4002000000600F4002600F400003990300010240000302400000024000500F4010500F400000202018500F4020500F4030500F400000A0A034500F4000700F4001700F4090
:40024000B66DC3000800044000010440B61DDB0008010440180104400802044000030440404226000803044010B5064C2378002B07D1054B002B02D0044800E000BF012312
:40028000237010BDE000002000000000FC12000008B5084B002B03D00748084900E000BF07480368002B00D108BD064B002BFBD09847F9E700000000FC120000E4000020F0
:4002C000C80000200000000008B5012000F066FDFA20800000F00EFC62B600F009F900F017F900F059F808BD08B5FFF7EDFF00F047F80128FBD1002000F048F800F014F832
:40030000F5E7C04608B50122064B1A7000F052FDC043C0B200F042FD00F0EEFD012000F0AFFD08BDFC00002000B583B06820002100F0CCF93B2000F07BFA00F033FA682019
:4003400069460622002300F0CFFA00F02BFA6B461A7812025B781A43084B5A806A46927812026946C9780A439A806A4612791202694649790A43DA8003B000BDFC000020E9
:40038000014B1878C0B27047FC000020014B18707047C046FC00002008B500F029F96820002100F093F96B2000F042FA002000F03FFA00F0F7F9034800F090FD00F050FD96
:4003C00008BDC04605030000FEE7C04670B50F4E0F4D13E029686B68AC68002202E001C901C30432A242FAD1E868002202E0002102C304328242FAD11035013E002EE9D114
:4004000000F04EFFFFF770FFFEE7C046010000002C14000008B50F4A136801218B43136000230AE0032B03D89A000B49505800E00A4899000A4A885001332F2BF2D9FFF708
:400440006FFE0022074B1A60024A116801230B43136008BD0000104000000000C903000000000020C0000020F0B50025002711E0BB00C658F3B2FF22964308E06A008A1848
:400480001478A419527822700135013BDBB2002BF4D10137042FEBD9F0BDC0460323044A1360044A13600022034B1A607047C0463000304030003140000E3F4008B50A1CC6
:4004C000002100F013FF08BD08B500F06DF808BD08B500F01DF808BD08B5044A1368802109060B431360FFF7EFFF08BD0000244008B5064B1B78002B04D1FFF7E9FF012210
:40050000024B1A70FFF7E8FF08BDC0460401002010B5134A134B1A600023134A13600121124A1160124A13480260072412480460124803601248016012490A60124A13602D
:400540000421124A1160124A1360124A1360124A1360124A1360124A1360124A136010BD0B0000020000244040002440480024400700008000032440040324401003244051
:4005800044002440000224400402244050002440880E2440C80E2440480F2440080F2440C80F2440880F2440044A1168044B0B40902109040B4313607047C046000102408F
:4005C000FFFF0FFF08B50A2000F046FA08BDC04608B500F01DF808BD08B5044A1368802109060B431360FFF7EDFF08BD0000254008B5064B1B78002B04D1FFF7E9FF0122E1
:40060000024B1A70FFF7E8FF08BDC0460801002010B50024194B1C60194A1A4B1A601A4B1A4A13601A4A14601A4A14601A4A13601A4B1C600A2000F019FA0A20012100F0FA
:4006400033FA0A20164900F01DFA164B1C60164B1C60164B1C601422FF32154B1A60154B1C60154B1C60043AFF3A144B1A70144B1C80144B1C60144B1C6010BD00002540EA
:400680007708008060002540070100800003254004032540100325400002254004022540090F0000C80E2540880E2540480F2540080F2540C80F2540880F25402D010020C4
:4006C0003C0100204C0100203401002038B52E4B1B78102B53D12D4B1B68DB0751D40D1C041C0A2000F0C2F96000FF231840002D03D12422244B1A7004E02522224B1A7027
:4007000001231843224B1860224A234B1A600222224B1A60204B1A680823FF331A42F9D01D4B1B685B0714D41B4B1B689B0713D4194B1B68DB0705D51022134B1A70012002
:4007400001210BE01022104B1A7080204000012104E00020002101E0022000210822FF320D4B1A6000290DD00D4A13685B005B0813601368802109060B43136002E00420E2
:4007800000E0082038BDC0462D010020640025404002254017030000000F254068002540000025401D4B1B789B0634D51C4B1B689B0601D5182200E010221A4B1A601A4B22
:4007C0001A681223FF331A42F9D0174B1B68DB0606D4154B1B68DB0705D50120012105E00020002102E08020400001211222FF320D4B1A60023AFF3A084B1A7000290BD0D2
:400800000A4A13685B005B0813601368802109060B43136000E004207047C0462D0100206400254068002540000F254000002540214B1B789B063CD5204B1860204B1A68CD
:400840000823FF331A42F9D01D4B1B685B0705D56022194B1A700020002119E0184B1B689B0705D56022144B1A70022000210FE0134B1B68DB0705D510220F4B1A70012052
:40088000012105E010220C4B1A708020400001210822FF320A4B1A6000290BD0094A13685B005B0813601368802109060B43136000E004207047C0462D010020400225404D
:4008C000000F254000002540054B1B682022134000D0082301221343024A13607047C0466400254068002540F0B583B001900C1C171C1D1C002919D02D4B1B78102B0AD101
:400900000A2000F0B3F82B4B1B68DB0701D508260FE000260DE0264B1B78602B08D1264A138808218B431380002602E0042600E00426002E35D129221D4B1A7000221F4BDB
:400940001A601F4A17601F4B1C60EBB21E490B70019B5C00FF231C400120044316490B8883430B8019491A4B19601368072B03D80422184B1A6008E0174A1368802149001E
:400980000B4313600822134B1A60EB0704D5FFF79BFF124B1C6004E0104B1C600222104B1A600A2000F058F8301C03B0F0BDC0462D010020640025403C0100204C0100208F
:4009C00048010020400100204401002017030000000F2540C80F254060002540400225406800254010B586B0041C00F052FC0E4B1B6800930D4B1B680193033C0C4B1B5D80
:400A000002930C4B1B68039304AA0B4B04936B4605930A4B1A600A490A4A11601B6800F03CFC06B010BDC04608010B4000010B40D813000030001040B6EA000008001040AF
:400A40001700008004001040024B1B68012018407047C0460C002E401F2318401E3B8340181C014B1860704700E100E01F2318401E3B8340181C014B1860704780E100E03F
:400A800001BE704738B5041C0D1C1F2802D90020FFF7F6FFA400034B9C4664442068256038BDC0464000002070B5041C0E1E032E02D90020FFF7E4FF1F2C02D90020FFF7C7
:400AC000DFFF03252540ED00063500F0E2FBA408A400074B9C46644423680322AA409343AE40351C1D43256000F0D7FB70BDC04600E400E010B5041C06E0084B186800F08F
:400B0000BFFB074B9C46644480231B029C42F4D8024B5868604300F0B3FB10BDCC0000200080FFFF08B5034B1B7A584300F0A8FB08BDC046CC00002010B5041C0F4A1168F4
:400B400001230B4313600E4A0E4B1A600E4A1368802109020B431360002809D100200CE00120FFF7DFFFFFF76FFF002804D1013C002CF5D1102000E0002010BD60F02E40D7
:400B80000220000078002E4010002E40034B1868C0231B02184000D00120704700010B4010B50D4B1A6801218A431A601A68022082431A60094A10683024A043203C2043E9
:400BC00010601068093CA043014311601A68802109060A431A6010BD00F02E4000FF2E4038B51D4B1B6801241C40002802D0012816D02BE0184B196801229143196019685D
:400C0000022081431960154B19682E3081432038014319601968093881430A431A6018E00D4B1A6802218A431A600C4A10680725A843014311601168302081431038014301
:400C40001160196801220A431A6002E00020FFF717FF201C38BDC04600F02E4000FF2E4008B500F016FB044A1368C02109020B43136000F012FB08BD00010B4010B500F091
:400C800008FB08490A68084B1A408024E40122430A600A6813408022120213430B6000F0FCFA10BD00010B40FF3FFFFF70B5061C00F0EFFA041CFFF769FF002803D0FFF763
:400CC000DDFF012500E000250848331C0340084A106808490840184310601368012D01D1FFF7BEFF201C00F0D8FA70BD0404040010020B40FBFBFBFF10B5244B1B685B0712
:400D000015D5234B1B685B070ED5224B9969042001401F4C22688A4322609A6982439A61DB68002B00D098470420FFF7BFFF174B1B685B0518D5164B1B685B0510D5154B08
:400D400099698022D2001140114802688A4302609969114A0A409A611B69002B00D098478020C000FFF7A2FF084B1B685B030CD5074B1B685B0304D5064B5B69002B00D092
:400D800098478020C002FFF791FF10BD10020B40DC00002010010020FFFBFFFF04490A68DF231A404001BF3B184010430860704700020440024B18688006C00F7047C046D8
:400DC000040204400004000C014B18607047C046480120400004000C014B18607047C0465401204038B5041C0D1C00F052FAAC40024B1C6000F051FA38BDC0460800204064
:400E000008B500F046FA064A116802230B43136000F043FA02201821FFF7E4FF08BDC04600002040014B18607047C0467801204008B580229204074B1A600C22064B1A6076
:400E40000120FFF7EFFF0548FFF7C4FF0020FFF7B9FF08BD40012040640120401027000008B5064B1B78002B04D1FFF7E1FF0122024B1A70FFF7C4FF08BDC0462C010020F5
:400E8000014B18607047C046700120408823014AD05070470000002010B5041C00F0F9F9044A1168044B0B40A4051C43146000F0F4F910BD10E400E0FFFF3FFF8022D2021F
:400EC000014B1A607047C04600E100E08022D202014B1A607047C04680E100E010B5041CFFF7F4FF201CFFF7D1FF0220FFF7D4FFFFF7E4FF10BDC0468022D202014B1A60D1
:400F00007047C04680E200E010B5B94B1B68002B00D09847B74B1B68DB0702D50022B64B1A60B64B1B789B0628D5B54B1B68DB0507D5B44A1188C0239B000B431380012326
:400F400000E00023AE4A1268D20706D5AD4A118890239B000B4313800123002B0FD0A74A1278D20701D5012200E00222A549088802430A800021A14A117000E000239F4A44
:400F80001278920600D417E19D4A1268D20611D510229D4B1A60994B1B78DB0701D5012300E00223974A11880B4313801022934B1A701BE1914A1278120720D5904A126880
:400FC00092070AD50222904B1A608E4A118888239B000B431380012311E0884A1278D20703D52521854A117009E02421834A1170864A1268002A02D01439854A11607F4A98
:401000001278520700D4AEE07C4A1278D20749D5804A1268120727D57F4A12687F4909681F240C407E4909686418141B082C09D8002C16D17B4A11687B4B0B4013600123CF
:4010400008340EE008240CE0754A116877480068411877480068C0B20870116801311160013C002CF0D119E06A4A1268520715D56B4A11686D48006841186D480068C0B282
:4010800008701168013111601168634A1268914203D20421674A116000E001236649674A116060E0564A1268920726D50222564B1A60634A13681F21194013688022120219
:4010C000134000D00123CB185E4A1168CB1A136012685D4B1A604B4A118884239B000B4313805A4B1A68802149020A431A601968574A0A401A60012335E0564A1268D20675
:401100001ED427E04F4A1168404A126891421DD23E4A1268013A4B4909688A4204D140224D490A603A490A60464A11684B48006841180978C9B24A48016011680131116044
:401140003F4A12681F210A40082ADBD11021424A116008E03F4A1268520604D5394B1A68394B1A600123002B40D02E4A11682E4B0B40136000233B4A1360254A13603A4BAD
:401180001B789B070ED51D4B1B78DB0701D5092300E00A231B4A11880B4313806022174B1A7023E0314B1B689B0601D5182200E01022204B1A6019E0104B1B78DB0615D483
:4011C0002B4A13685B005B08136010210B4B1970144B186827490140196018682649014019601368802109060B43136010BDC0460C0100208C0E2540880E25402D010020D8
:401200000C0F25403C010020000F254038010020880F2540CC0F254048010020080325404C01002060002540FFFEFFFF400100204003254068002540ED0F0000C00F2540BC
:4012400008022540300100203401002004022540FFFFFEFF8C0F2540800F25405001002040022540C80F2540440100206400254000002540FF5FFFFFFFFCFFFF00000000C3
:401280000230800803D00138FDD1C046C046C0467047EFF3108072B6704780F3108870470E4B70B500251E1C0D4CE41AA410A54204D0AB00F35898470135F8E700F0A4F8A5
:4012C000084B00251E1C084CE41AA410A54204D0AB00F35898470135F8E770BD1414000014140000141400001C140000031C8218934202D019700133FAE770470000000007
:4013000000300F40000400400F40000401000F402E320F4023330F4007410F4002600F40820F0303070C0A081102160D19081E0422012E02300431023202330834013504DF
:40134000360837013E104030410545D046024715483649FF4AFF4BFF4DA04F04501852805407580459045A045B045F01604062C06440654066C068C06AC06CC06EC006044F
:401380000D080F02168017401D081E081F81244026202722362037023D083F0245084F815504568457415C405E085F21774083808F01C040C2A0C490CCA0CEC0D040D210D1
:4013C000D6F0E2405910630881108F04D480D840E620100111010000030405060708090A0B0C0E0F101112131415161718191B1C1D1E1F2021222325262728292A2B2E2FB7
:401400003031323334350000F8B5C046F8BC08BC9E4670479102000015040000F8B5C046F8BC08BC9E4670476902000040140000C80000201800000078000000000000000E
:40144000000000000000E02EC05D00001800000000366E01040404000000000000000000000000000000000000000000000000000000000000000000000000000000000078
:40148000000000000000000000000000000000000000000000000000000000000000000000000000000000000000000000000000000000000000000000000000000000002C
:4014C00000000000000000000000000000000000000000000000000000000000000000000000000000000000000000000000000000000000000000000000000000000000EC
:4015000000000000000000000000000000000000000000000000000000000000000000000000000000000000000000000000000000000000000000000000000000000000AB
:40154000000000000000000000000000000000000000000000000000000000000000000000000000000000000000000000000000000000000000000000000000000000006B
:020000040001F9
:0200000490303A
:02000000DB8A99
:0200000490402A
:4000000000000000000000000000000000000000000000000000000000000000000000000000000000000000000000000000000000000000000000000000000000000000C0
:400040000000000000000000000000000000000000000000000000000000000000000000000000000000000000000000000000000000000000000000000000000000000080
:0200000490501A
:0C00000000020E34119E00000E39ED28A5
:0200000490600A
:0100000001FE
:00000001FF