:400000000040002011000000210300002103000008B500F087F9C04610B5234C1223236000F068FD012000F085FD182000F086FC1E4A1F4B1A601F4B196802220A431A6034
:400040001D4A1E4B1A601E4B1A6808218A431A60FA20C00000F018FD1A4800F00BFDE0221201194B1A60194B194A1A6080214901184A1160184A1A6080221206174B1A603E
:400080004022174B1A604122164B1A600820164900F0A4FC082000F08BFC0022134B1A601123236010BDC046300010400600008004010B4078002E402D3E00007C002E40F9
:4000C0006CF02E40DC050000000301400000014040FF00800403014041FF008008010B400801014004010140510C00000C020B4038B572B60022274B1A600024264D0CE0C9
:4001000063001B195B00EB1899881A8858880004104300F067F90134E4B2012CF0D9EE2212061E4B1A6099231B041D4A1360EE2109041C4A11601C4A13601C4A13601C4AF4
:4001400013601C4B197802220A431A701A4A11783C208143142001431170197816220A431A70D8221204154B1A602023144A1360C4218902134A1160134A13603022134BB7
:400180001A6090229202124B1A60FFF745FF00F019F938BD6CF02E403011000000000240000102400003024000500F4010500F4030500F4000700F4001700F4008000440BA
:4001C000000104400801044018010440000304400803044010B5064C2378002B07D1054B002B02D0044800E000BF0123237010BDE0000020000000002411000008B5084BC4
:40020000002B03D00748084900E000BF07480368002B03D0064B002B00D0984708BDC0460000000024110000E4000020C80000200000000000B583B06820002100F0E6F952
:400240003B2000F093FA00F04DFA682069460622002300F0E7FA00F045FA68460278120243781A43064B1A8082781202C1780A435A800279120241790A439A8003B000BD20
:40028000FC00002008B56820002100F0BFF96B2000F06CFA002000F069FA00F023FA08BD10B50E4C2078C0B200F03CFB6078C0B200F038FB0A4C2078C0B200F033FB6078DB
:4002C000C0B200F02FFB074C2078C0B200F02AFB6078C0B200F026FB10BDC046300100202C0100202801002008B500F095F800F0A3F800F01DF9FFF7C5FF08BD08B562B6CC
:40030000FFF7F2FF054800F0F1F8FFF793FF642000F098FBFFF7C4FFF7E7C04628110000FEE7C046F8B50F4F0F4E002412E031687368B568221C02E001C901C30432AA4281
:40034000FAD1F168221C01E010C304328A42FBD11036013F002FEAD100F0B6FEFFF7CEFFFEE7C046010000009011000038B5104B1A6801218A431A6000230E4C0E4D0F48D3
:4003800008E0032B02D89A00515900E0211C9A00115001332F2BF4D9FFF7AAFE0022084B1A60034B196801220A431A6038BDC04600001040210300000000000000000020C1
:4003C000C00000200323044A1360044A13600022034B1A607047C0463000304030003140000E3F4008B50A1C002100F093FE08BD08B500F06DF808BD08B500F01DF808BD58
:4004000008B5044B1968802212060A431A60FFF7EFFF08BD0000244008B5064B1B78002B04D1FFF7E9FF0122024B1A70FFF7E8FF08BDC0460201002010B5134A134B1A6063
:400440000023134A13600121124A1160124A13480260072412480460124803601248016012490A60124A13600421124A1160124A1360124A1360124A1360124A1360124A02
:400480001360124A136010BD0B0000020000244040002440480024400700008000032440040324401003244044002440000224400402244050002440880E2440C80E24403C
:4004C000480F2440080F2440C80F2440880F2440044B1968044A0A40902109040A431A607047C04600010240FFFF0FFF38B5051C002402E000F0FEFB0134285D0028F9D1EE
:4005000038BDC04608B50A2000F052FA08BDC04608B500F01DF808BD08B5044B1968802212060A431A60FFF7EDFF08BD0000254008B5064B1B78002B04D1FFF7E9FF01228F
:40054000024B1A70FFF7E8FF08BDC0460401002010B50024194B1C60194A1A4B1A601A4B1A4A13601A4A14601A4A14601A4A13601A4B1C600A2000F025FA0A20032100F0B1
:400580003DFA0A20164900F029FA164B1C60164B1C60164B1C601422FF32154B1A60154B1C60154B1C601022144B1A70144B1C80144B1C60144B1C6010BDC04600002540D4
:4005C0007708008060002540070100800003254004032540100325400002254004022540110D0000C80E2540880E2540480F2540080F2540C80F2540880F2540320100207A
:4006000040010020500100203801002038B5051C0C1C2D4B1B78102B51D12C4B1B68DA074FD40A2000F0CEF96D00FF231D40002C03D12422244B1A7004E02522224B1A70C5
:4006400001231D43224B1D60224A234B1A600222224B1A6020490822FF320B681342FCD01D4B1B685A0714D41B4B1B689A0713D4194B1B68DA0705D51022134B1A700120D3
:4006800001210BE01022104B1A7080204000012104E00020002101E0022000210822FF320D4B1A6000290DD00D4B1A68520052081A601968802212060A431A6002E0042090
:4006C00000E0082038BDC04632010020640025404002254017030000000F254068002540000025401C4B1B789A0633D51B4B1B689A0601D5182200E01022194B1A601949E7
:400700001222FF320B681342FCD0164B1B68DA0606D4144B1B68DA0705D50120012105E00020002102E08020400001211222FF320C4B1A601022084B1A7000290BD00A4B9A
:400740001A68520052081A601968802212060A431A6000E004207047320100206400254068002540000F254000002540214B1B789A063CD5204B186020490822FF320B6888
:400780001342FCD01D4B1B685A0705D56022194B1A700020002119E0184B1B689A0705D56022144B1A70022000210FE0134B1B68DA0705D510220F4B1A700120012105E070
:4007C00010220C4B1A708020400001210822FF320A4B1A6000290BD0094B1A68520052081A601968802212060A431A6000E004207047C0463201002040022540000F254089
:4008000000002540054B1B689A0601D5082200E0002201231A43024B1A6070476400254068002540F0B5474680B4071C0D1C90461E1C002919D02E4B1B78102B0AD10A2029
:4008400000F0C0F82B4B1B68DA0701D508240FE000240DE0264B1B78602B08D1264B1A8808218A431A80002402E0042400E00424002C35D129221E4B1A7000221F4B1A603D
:400880001F4B42461A601F4A1560F2B21E490A707F00FF22174001210F43174A1088884310801A491A4A11601B68072B03D80422184B1A6008E0184B1968802252000A43D2
:4008C0001A600822134B1A60F30704D5FFF79AFF124B1F6004E0114B1F600222104B1A600A2000F065F8201C04BC9046F0BDC046320100206400254040010020500100209C
:400900004C010020440100204801002017030000000F2540C80F2540600025404002254068002540044B1968DF220A404001202108401043186070470001044010B586B0D2
:40094000041C00F0BAFB0E4B1B6800930D4B1B680193033C0C4B1B5D02930C4B1B68039304AA0B4B049300AB05930A4B1A600A490A4A11601B6800F0A4FB06B010BDC04661
:4009800008010B4000010B403C11000030001040B6EA0000080010401700008004001040024B1B68012018407047C0460C002E401F23184001238340181C014B1860704737
:4009C00000E100E01F23184001238340181C014B1860704780E100E001BE704738B5041C0D1C1F2802D90020FFF7F6FFA400024BE4182068256038BD4000002070B5041C58
:400A00000E1E032E02D90020FFF7E6FF1F2C02D90020FFF7E1FF03252540ED00063500F04CFBA408A400064BE41823680322AA409343AE40351C1D43256000F042FB70BDF0
:400A400000E400E070B5041C80252D02074E04E0306800F029FB064BE418AC42F8D8034B5868604300F020FB70BDC046CC0000200080FFFF08B5034B1B7A584300F014FB16
:400A800008BDC046CC00002010B5041C0F4B196801220A431A600E4A0E4B1A600E4B1968802212020A431A60002809D100200CE00120FFF7DFFFFFF773FF002804D1013CAE
:400AC000002CF5D1102000E0002010BD60F02E400220000078002E4010002E40044B1A68C0231B021A4201D0012000E00020704700010B4010B50D4B1A6801218A431A6099
:400B00001A68022082431A60094A10683024A04310242043106010680724A043014311601968802212060A431A6010BD00F02E4000FF2E4038B5031C1D4A12680120041CC6
:400B40001440002B02D0012B16D02BE0184B19680122914319601968022081431960154B1968302081431020014319601968072081430A431A6018E00D4B1A6802218A43FC
:400B80001A600C4A10680725A84301431160116830208143202001431160196801220A431A6002E00020FFF717FF201C38BDC04600F02E4000FF2E4008B500F07EFA044BB0
:400BC0001968C02212020A431A6000F07AFA08BD00010B4010B500F070FA084B1968084A11408024E4012143196019680A40802109020A431A6000F064FA10BD00010B40A1
:400C0000FF3FFFFF38B5051C00F057FA041CFFF765FF002803D0FFF7DDFF012200E00022084B1D40084B1868084901400D431D601B68012A01D1FFF7BFFF201C00F041FA40
:400C400038BDC0460404040010020B40FBFBFBFF10B5244B1B685A0715D5234B1B685A070ED5224B9C69042214401F490868A0430860996991439961DB68002B00D09847ED
:400C80000420FFF7BFFF174B1B685A0518D5164B1B685A0510D5154B9A698020C0001040114A1168814311609969114A0A409A611B69002B00D098478020C000FFF7A2FFF0
:400CC000084B1B685A030CD5074B1B685A0304D5064B5B69002B00D098478020C002FFF791FF10BD10020B40DC0000200C010020FFFBFFFF04491F220B681340082BFBD061
:400D0000024B18607047C0460802244040022440F0B557464E464546E0B4BF4B1B68002B00D09847BD4B1B68D80702D50022BC4B1A60BC4B1B78990628D5BB4B1B68DA053F
:400D400007D5BA4B1988C02292000A431A80012300E00023B44A1268D40706D5B34B1988902292000A431A800123002B0FD0AD4A1278D00701D5012100E00221AB4A108869
:400D8000014311800021A74A117000E00023A54A1278910600D420E1A34A1268D40611D51022A34B1A609F4B1B78D80701D5012100E002219D4B1A880A431A801022994B44
:400DC0001A7024E1974A1278110720D5964A126894070AD50222964B1A60944B1988882292000A431A80012311E08E4A1278D00703D525218B4A117009E02421894A1170B2
:400E00008C4A1268002A02D010218B4A1160854A1278510700D4B7E0824A1278D4074AD5864A1268100728D5854A1168854A12681F2002408448006812188A1A082A09D8FE
:400E4000002A14D1814B1968814A0A401A60012308220CE008220AE00868346820182C68E4B20470086801300860013A02E07649784E794D002AEFD119E0704A1268500778
:400E800015D5714A116873480068411872480068C0B208701168013111601168684A1268914203D204216D4A116000E001236C496C4A116068E05C4A1268910727D50222D6
:400EC0005B4B1A60684B1968684B1A681F2002401B681C0401D5012300E00023D318CA1A614B1A601A68624B1A60504B1988842292000A431A805F4B1968802252020A43E1
:400F00001A6019685C4A0A401A6001233CE05B4A1268D0061CD42EE038683168884226D249460868013844462168884204D14021534801604048016011686046006841180E
:400F40000878C0B24F49086011680131116009E0464D1F218A46444F364EB146B8463A1C494884462968544621400829D4D11021434A116008E0414A1268500604D53A4BE8
:400F80001A683B4B1A600123002B40D02F4B19682F4A0A401A6000233C4A1360264A13603B4B1B7899070ED51E4B1B78DA0701D5092100E00A211D4B1A880A431A80602222
:400FC000184B1A7023E0334B1B689C0601D5182200E01022214B1A6019E0124B1B78D80615D42D4B1A68520052081A6010210D4A1170164A10682949014011601068284998
:40100000014011601968802212060A431A601CBC90469946A246F0BD080100208C0E2540880E2540320100200C0F254040010020000F25403C010020880F2540CC0F254076
:401040004C010020080325405001002060002540FFFEFFFF440100204003254068002540ED0F0000C00F254034010020080225403801002004022540FFFFFEFF8C0F2540D5
:40108000800F25404002254054010020C80F2540480100206400254000002540FF5FFFFFFFFCFFFF000000000230800803D00138FDD1C046C046C0467047EFF3108072B601
:4010C000704780F31088704770B50E4B0E4D0024ED1AAD101E1CAC4204D0A300F35898470134F8E700F042F8084B094D0024ED1AAD101E1CAC4204D0A300F3589847013420
:40110000F8E770BD78110000781100007811000080110000031C8218934202D019700133FAE7704700000000535441525400000000300F40000400400F400004030405060C
:401140000708090A0B0C0E0F101112131415161718191B1C1D1E1F2021222325262728292A2B2E2F3031323334350000F8B5C046F8BC08BC9E467047FD0100006D0300005D
:40118000F8B5C046F8BC08BC9E467047D5010000A0110000C80000201800000078000000000000000000E02EC05D00001800000000366E0104040400000000000000000076
:4011C00000000000000000000000000000000000000000000000000000000000000000000000000000000000000000000000000000000000000000000000000000000000EF
:4012000000000000000000000000000000000000000000000000000000000000000000000000000000000000000000000000000000000000000000000000000000000000AE
:40124000000000000000000000000000000000000000000000000000000000000000000000000000000000000000000000000000000000000000000000000000000000006E
:40128000000000000000000000000000000000000000000000000000000000000000000000000000000000000000000000000000000000000000000000000000000000002E
:020000040001F9
:0200000490303A
:020000000C49A9
:0200000490402A
:4000000000000000000000000000000000000000000000000000000000000000000000000000000000000000000000000000000000000000000000000000000000000000C0
:400040000000000000000000000000000000000000000000000000000000000000000000000000000000000000000000000000000000000000000000000000000000000080
:0200000490501A
:0C00000000020E34119E00010E391DE7B5
:0200000490600A
:0100000001FE
:00000001FF